:020000040800F2
:1000000090080020F11A0008D9040008DB04000859
:10001000DF040008E3040008E70400080000000013
:10002000000000000000000000000000EB040008D9
:10003000ED04000800000000EF040008F1040008CF
:100040000B1B00080B1B00080B1B00080B1B0008F8
:100050000B1B00080B1B00080B1B0008FB140008FF
:100060000B1B00080B1B00080B1B00080B1B0008D8
:100070000B1B00080B1B00080B1B00080B1B0008C8
:100080000B1B00080B1B00080B1B00080B1B0008B8
:100090000B1B00080B1B00080B1B0008B10E00080F
:1000A0000B1B00080B1B00080B1B00080B1B000898
:1000B000191900087F1800082B1A00080B1B0008EC
:1000C0000B1B00080B1B00080B1B00080B1B000878
:1000D0000B1B0008FF1700083D3800080B1B000829
:1000E000E70E00080B1B00080B1B00080B1B000889
:1000F0000B1B00080B1B00080B1B00080B1B000848
:100100000B1B00080B1B00080B1B00080B1B000837
:100110000B1B00080B1B00080B1B00080B1B000827
:100120000B1B00080B1B00080B1B00080B1B000817
:10013000DFF80CD007F06EFF0048004745010008CB
:100140009008002088B000244FF4A06002F066FA06
:1001500001F00AFA4FF4165001F070FA4FF4E13052
:1001600001F0BFFA00F0B6FA00F075FB01F029F8D3
:1001700041F61F4141F2873001F0A0FB41F61F41DB
:1001800040F6C31001F04EFB00F095FD00F08BFC33
:1001900000F0ECFD00F042FE00F0CFFA01F02EF886
:1001A00001F03FF801F06CF941F61F4142F20E7088
:1001B00001F009FC03F0B8FA03E04FF4FA7001F023
:1001C00010FA04F0F5FA0028F7D1012000F0AAFA9D
:1001D000FA2001F006FA002000F0A4FAA449A5488C
:1001E00001F0E9FA0121A44804F04CFB00BFA34848
:1001F000007801F0A1F90028F9D1012001F0B3F84D
:100200004FF47A7001F0EDF94FF47A7001F0E9F9EA
:100210002CE19B4B9B4A9C499C4800F062FB46208A
:1002200000F07CFF18B900F0D5FF994908609948A3
:1002300000780A2814DB98499548006807F0F6FC16
:1002400007D392480078502803DC8E480078202895
:1002500003DD01209149087002E000208F490870F9
:100260008C4800780A2804DA8A480078401C8949BA
:1002700008708B480088401C80B28949088005219D
:1002800090FBF1F201FB1200B0BB1021854801F098
:1002900034FD08B1012000E00020834908707C484B
:1002A000006807F064FC05460E46804801788048E7
:1002B00002787A4803787C48007880F00100CDE924
:1002C0000256CDE90532079104906F4800786F49D6
:1002D0000978CDE900106A4803786A4802787549C0
:1002E000754808F0ABF87449744804F0F3FA00203C
:1002F0006B49088003F09CF9032003F0F4F90446ED
:1003000014B1204604F011FB5C48007801F014F9A8
:100310006B4803F0D8F84FF4AA7100FB01F9484686
:1003200007F0DCFB07460022664B07F063FB05463F
:1003300007F004FC5E49087059480088B42875DC51
:100340000846007800282ADD0A2001F04AF95848BA
:1003500000785D49097888421CDA01205349087009
:1003600000205A490860022000F0FDFF4FF47A7027
:1003700001F037F94FF47A7001F033F94FF47A70E5
:1003800001F02FF901205249C1F8B4010020514970
:10039000087004E04F480078401C4E490870402126
:1003A000404801F0AAFCF8B9002048490860022042
:1003B0003E4908700A2001F014F9032000F0D3FF31
:1003C0004FF47A7001F00DF94FF47A7001F009F9E9
:1003D0004FF47A7001F005F901203D49C1F8B401EC
:1003E00000203C49087027E080212E4801F085FC60
:1003F000E8B900203549086003202C490870042022
:1004000000F0B1FF4FF47A7001F0EBF84FF47A701E
:1004100001F0E7F84FF47A7001F0E3F801202C497D
:10042000C1F8B40100202B49087005E009E0294813
:100430000078401C274908704FF47A7001F0D1F819
:1004400014E0002019490870072000F08CFF4FF4D9
:100450007A7001F0C6F84FF47A7001F0C2F84FF4E8
:100460007A7001F0BEF800201A490870D1E6000049
:100470001C0000200038014018000020130000205C
:1004800001000020000000200300002002000020E6
:10049000080000200500002000803B4504000020EB
:1004A0000E000020000801400C0000201500002074
:1004B00014000020BC95000880000020208F000858
:1004C000000800400000694012000020B4012242F0
:1004D0000000224210000020704700BFFEE700BF6E
:1004E000FEE700BFFEE700BFFEE7704770477047BA
:1004F000704700000CB50020019000906C48006827
:1005000040F480306A49086000BF6948006800F420
:10051000003000900198401C0190009818B9019893
:10052000B0F5A06FF1D16248006800F4003010B15E
:100530000120009001E0002000900098012843D1A4
:100540005C48006840F010005A490860084600689E
:1005500020F0030008600846006840F002000860D0
:100560005348406852494860084640684860084619
:10057000406840F4806048600846406820F47C1081
:1005800048600846406840F4E81048600846006843
:1005900040F08070086000BF4548006800F00070BF
:1005A0000028F9D04248406820F0030040494860E4
:1005B0000846406840F00200486000BF3C48406880
:1005C00000F00C000828F9D10CBD10B5FFF792FF20
:1005D00010BD10B53648006840F00100344908608D
:1005E0000846406834490840314948600846006878
:1005F000324908402E4908600846006820F48020EF
:1006000008600846406820F4FE0048604FF41F0070
:100610008860FFF7DAFF4FF000602949086010BDDD
:1006200010B5002100200022214B5B6803F00C0173
:1006300021B1042906D0082928D107E0214B224CFA
:10064000236027E01F4B204C236023E0184B5B689E
:1006500003F47010164B5B6803F48032022303EB43
:10066000904022B9194B4343174C23600DE0104BC7
:100670005B6803F4003323B1144B4343124C2360F3
:1006800003E0104B4343104C236003E00D4B0E4C32
:10069000236000BF00BF064B5B68C3F303130C4C21
:1006A000E15C094B1B68CB40074C236010BD000088
:1006B00000100240002002400000FFF8FFFFF6FE9D
:1006C00008ED00E000127A002C00002000093D0037
:1006D0003000002008B50121142001F037FD102062
:1006E000ADF800008DF8030003208DF80200694684
:1006F0000A4801F06FFA1021084801F018FB4FF486
:100700000050ADF800006946054801F063FA4FF467
:100710000051034801F00BFB08BD00000008014038
:100720000010014010B5044622464FF4805118488D
:1007300001F001FB1748047010BD08B50121082025
:1007400001F004FD0121084601F000FD01211248DD
:1007500001F011FB10208DF803000002ADF800003D
:1007600003208DF802006946094801F033FA0020A1
:10077000FFF7D8FF08BD10B50648007808B901207A
:1007800000E00020034908700878FFF7CBFF10BD98
:10079000000C0140400000200002300008B54FF47A
:1007A0008040ADF8000010208DF8030003208DF884
:1007B00002006946664801F00DFA08BD08B54FF41D
:1007C0008040ADF8000004208DF8030069466048C1
:1007D00001F000FA08BD10B5FFF7E0FF4FF48041CB
:1007E0005B4801F0A6FA142000F0FBFE4FF48041B4
:1007F000574801F09CFA1E2000F0CFFE10BD10B546
:100800000024FFF7DBFF04E0601CC4B2012000F00D
:10081000C4FE4FF480414E4801F06FFA012801D127
:10082000642CF1DB642C01DB012010BD002404E00A
:10083000601CC4B2012000F0B0FE4FF48041444877
:1008400001F05BFA08B9642CF2DB642C01DB0120B7
:10085000EBE70020E9E710B50121082001F076FC64
:10086000FFF7B9FFFFF7CBFF10BD10B5002404E080
:10087000601CC4B2012000F090FE4FF48041344867
:1008800001F03BFA012801D1642CF1DB002404E0E3
:10089000601CC4B2012000F080FE4FF480412C485F
:1008A00001F02BFA08B9642CF2DB282000F075FE69
:1008B0004FF48041264801F020FA012800D110BDF4
:1008C0000020FCE770B50024002506E06006040E59
:1008D000FFF7CBFF0443681CC5B2082DF6DB2046AA
:1008E00070BD2DE9FC4105460E4617469846FFF7B8
:1008F00072FFFFF784FF30BB002405E0FFF7E2FF43
:100900000DF80400601CC4B2052CF7DB9DF8000054
:100910009DF8011008449DF8021008449DF803104A
:1009200008449DF80410884210D19DF800002870FA
:100930009DF8010030709DF8020038709DF80400A9
:1009400088F8000002E00120BDE8FC810020FBE700
:10095000000C014008B50121082001F0F7FB14202C
:100960008DF8030003208DF802004FF48070ADF87D
:1009700000006946FB4801F02DF94FF40070ADF816
:1009800000006946F74801F025F901221102F548F7
:1009900001F0D1F901225102F24801F0CCF908BD71
:1009A00010B501225102EF4801F0C5F901221102F0
:1009B000EC4801F0C0F900224FF40071E94801F061
:1009C000BAF900224FF48071E64801F0B4F910BD85
:1009D00010B500224FF40071E24801F0ACF9012299
:1009E0001102E04801F0A7F901225102DD4801F0AF
:1009F000A2F910BD70B50546002415E08020204105
:100A000000EA05024FF40071D64801F094F9012282
:100A10001102D44801F08FF900224FF48071D148BF
:100A200001F089F9601CC4B2082CE7DB0122110235
:100A3000CC4801F080F900224FF48071C94801F0E0
:100A40007AF970BD10B50446FFF7AAFF7820FFF7CA
:100A5000D1FF0020FFF7CEFF2046FFF7CBFFFFF7C7
:100A6000B7FF10BD10B50446FFF79AFF7820FFF7D7
:100A7000C1FF4020FFF7BEFF2046FFF7BBFFFFF797
:100A8000A7FF10BD70B505460C4645F0B000FFF756
:100A9000D9FF102141EA1410FFF7D4FF04F00F0032
:100AA000FFF7D0FF70BD70B500240EE00021204696
:100AB000FFF7E8FF002504E00020FFF7D3FF681CE4
:100AC000C5B2802DF8DB601CC4B2082CEEDB70BD13
:100AD0002DE9F04105460E461746721ED206110E4C
:100AE0006A1E5206100EFFF7CDFF002409E0A7F1A1
:100AF00020019D4A02EB0111085DFFF7B3FF601C66
:100B0000C4B2082CF3DB721ED206110E6A1E01233A
:100B100003EB4202D0B2FFF7B5FF00240BE0A7F1D0
:100B20002001914A02EB011204F10801505CFFF729
:100B300099FF601CC4B2082CF1DBBDE8F0812DE9FF
:100B4000F04107460E461546002407E02A5D30199D
:100B5000C1B23846FFF7BCFF601CC4B2285D002854
:100B6000F4D1BDE8F08110B50246012000E0504309
:100B70000B1EA1F10101FAD110BD2DE9F04780460D
:100B80000E4617461D46002415E0281B411E0A206C
:100B9000FFF7E9FFB7FBF0F00A21B0FBF1F201FB30
:100BA000120000F130093019C1B24A464046FFF741
:100BB0008FFF601CC4B2AC42E7DBBDE8F0872DE9D3
:100BC000F0478146884615461E46002D06DB2B223F
:100BD00041464846FFF77CFF2F4605E02D2241465F
:100BE0004846FFF775FF6F42002417E0301B411E97
:100BF0000A20FFF7B8FFB7FBF0F00A21B0FBF1F2D3
:100C000001FB120000F1300A08EB0400401CC1B2E5
:100C100052464846FFF75CFF601CC4B2B442E5DBB5
:100C2000BDE8F0872DE9F04781460E4690461F4605
:100C300000241DE0381B411E1020FFF794FFB8FB75
:100C4000F0F000F00F050A2D08DA05F13000C2B20D
:100C50003019C1B24846FFF73BFF07E005F1370006
:100C6000C2B23019C1B24846FFF732FF601CC4B2AD
:100C7000BC42DFDBBDE8F0872DE9F04780460E4639
:100C800017461D46002412E0281B411E0220FFF7D4
:100C90006AFFB7FBF0F000F0010000F130093019F5
:100CA000C1B24A464046FFF713FF601CC4B2AC42D3
:100CB000EADBBDE8F08770B5002406E0002500E01F
:100CC0006D1CB5F57A7FFBD3641CB4F57A7FF5D340
:100CD000FFF740FEAE20FFF7B5FED520FFF7B2FECE
:100CE0008020FFF7AFFEA820FFF7ACFE3F20FFF704
:100CF000A9FED320FFF7A6FE0020FFF7A3FE4020A9
:100D0000FFF7A0FEA120FFF79DFEC820FFF79AFE87
:100D1000DA20FFF797FE1220FFF794FE8120FFF7FD
:100D200091FECF20FFF78EFED920FFF78BFEF1203A
:100D3000FFF788FEDB20FFF785FE3020FFF782FEFD
:100D4000A420FFF77FFEA620FFF77CFE8D20FFF793
:100D500079FE1420FFF776FEAF20FFF773FEFFF752
:100D6000A2FE70BD000C0140338F000808B50121C0
:100D70000C2001F0EBF90121224800F0FCFF4FF4B8
:100D80000040ADF8000048208DF8030069461E4879
:100D900000F020FF4FF48070ADF8000048208DF87F
:100DA00003006946194800F015FF08BD10B5044658
:100DB00014B101201649087015480078A8B11548EB
:100DC000006810B11448006878B90A2000F009FCE6
:100DD00000200F4908700F48006808B9012010BDB5
:100DE0000D48006858B90220F9E70A480068012850
:100DF00005D109480068012801D105490870002083
:100E0000EDE7000000023000000C01400008014046
:100E10004100002004812142180121421FB5012117
:100E20000D2001F093F94FF48070ADF804004820D4
:100E30008DF8070001A93A4800F0CCFE4FF40040BD
:100E4000ADF8040001A9374800F0C4FE08210020D5
:100E500000F0D6FF4FF48070029000208DF80C0057
:100E60000C208DF80D0001208DF80E0002A802F074
:100E70005FFB0F21012000F0C3FF4FF40040029000
:100E800002A802F055FB17208DF8000000208DF815
:100E9000010001208DF802008DF80300684601F082
:100EA000C2FB28208DF80000684601F0BCFB1FBD86
:100EB00010B54FF4807002F0A1FB98B10A2000F049
:100EC00090FB1948006848B917487830006808B99D
:100ED000012000E000201449783108604FF4807050
:100EE00002F09DFB10BD10B54FF4004002F086FBF0
:100EF000A0B10A2000F075FB0C48006850B90C48FE
:100F0000007808B9012000E000200949087000209D
:100F1000084908704FF4004002F081FB10BD00004A
:100F200000080140000C01401801214204812142C7
:100F30000400002005000020002001E0411CC8B290
:100F40000A28FBDB704710B54FF48061A94800F018
:100F5000EEFE4FF40061A74800F0E9FEFFF7ECFF5A
:100F60004FF48061A34800F0E4FEFFF7E5FF4FF483
:100F70000061A04800F0DDFEFFF7DEFF10BD10B5F8
:100F80004FF480619B4800F0D4FE4FF40061994813
:100F900000F0CDFEFFF7D0FF4FF48061954800F0E0
:100FA000C6FE10BD70B50446002528E004F08000A0
:100FB00028B14FF480618F4800F0B9FE04E04FF48F
:100FC00080618C4800F0B5FEFFF7B6FF4FF400617A
:100FD000884800F0ACFEFFF7AFFF4FF40061854892
:100FE00000F0A7FE072D04D14FF48061814800F086
:100FF0009EFE6006040EFFF79FFF681CC5B2082D19
:10100000D4DB70BD70B50024002519E06006040E25
:101010004FF40061774800F08AFEFFF78DFF4FF430
:101020008061744800F069FE08B1601CC4B24FF4DE
:101030000061704800F07DFEFFF77EFF681CC5B2BE
:10104000082DE3DB204670BD10B54FF48061694880
:1010500000F06DFEFFF770FF4FF40061654800F08F
:1010600066FEFFF769FF4FF48061624800F045FEBD
:1010700008B1012400E000244FF400615D4800F055
:1010800058FEFFF759FF204610BD10B54FF48061A0
:10109000584800F04EFEFFF74FFF4FF400615548EF
:1010A00000F045FEFFF748FF4FF40061514800F0A3
:1010B00040FEFFF741FF4FF480614E4800F037FEDD
:1010C00010BD10B54FF480614A4800F030FEFFF7C4
:1010D00033FF4FF40061474800F029FEFFF72CFF73
:1010E0004FF40061434800F024FEFFF725FF10BDD8
:1010F00008B50121082001F029F84FF44060ADF84F
:10110000000003208DF8020014208DF803006946CA
:10111000384800F05FFDFFF732FF08BD70B50446A8
:10112000FFF711FF2046FFF73DFFFFF78DFF054654
:10113000FFF725FF284670BD10B50446FFF703FFF3
:101140004620FFF72FFFFFF77FFF012800D110BDDA
:101150002046FFF727FFFFF777FF012801D1022084
:10116000F5E7FFF70CFF0020F1E710B50024FFF7CB
:10117000EAFE4720FFF716FFFFF766FF012801D1BF
:10118000002010BDFFF73EFF0446FFF77EFFFFF78C
:1011900039FF00EB042084B2FFF793FFFFF7EFFE67
:1011A0002046EEE710B50120FFF7C6FF10BD10B5D1
:1011B0000020FFF7C1FF10BD10B50720FFF7BCFFEF
:1011C00010BD10B5FFF794FFFFF7ECFF1020FFF7FD
:1011D000B3FF10BD70B5FFF7C8FF064606F079FCF7
:1011E0000546054906F0AFFA04464FF07E5106F079
:1011F00078FA70BD000C0140CDCC8C3F08B50121C0
:10120000042000F0A3FF8020ADF8000004208DF83A
:10121000030003208DF8020069460B4800F0DAFC59
:1012200008BD08B50121042000F090FF4020ADF872
:10123000000004208DF8030003208DF802006946A9
:10124000014800F0C7FC08BD0008014010B586B099
:1012500004460121082000F079FF0121880400F0F4
:1012600082FF4FF40060ADF8140018208DF81700CD
:1012700003208DF8160005A97C4800F0ABFC4FF464
:101280008060ADF8140004208DF8170005A9774898
:1012900000F0A0FC01940C20ADF80E000020ADF889
:1012A0000C00ADF80A00ADF81000ADF8080001A977
:1012B0006F4800F0F2FF01216D4801F07AF806B0A6
:1012C00010BD2DE9F04705460C46260EC4F307472E
:1012D000C4F3072804F0FF093146284601F0D6F888
:1012E00000BF8021284601F03FF90028F9D0394697
:1012F000284601F0CBF800BF8021284601F034F9E0
:101300000028F9D04146284601F0C0F800BF8021EE
:10131000284601F029F90028F9D04946284601F06D
:10132000B5F800BF8021284601F01EF90028F9D049
:10133000BDE8F08770B504460D462946204601F009
:10134000A5F800BF8021204601F00EF90028F9D051
:1013500070BD10B547494648FFF7B3FFC521444863
:10136000FFF7E8FF10BD10B504460A2C7BD2DFE87A
:1013700004F07A05121F2C394653606D3E493F48F0
:10138000FFF79FFF01213D48FFF7D4FFB4213B4801
:10139000FFF7D0FF67E038493848FFF792FF022196
:1013A0003648FFF7C7FFB5213448FFF7C3FF5AE0BF
:1013B00031493248FFF785FF03213048FFF7BAFF74
:1013C000B6212E48FFF7B6FF4DE02B492B48FFF71B
:1013D00078FF04212948FFF7ADFFB7212748FFF721
:1013E000A9FF40E024492548FFF76BFF052123486A
:1013F000FFF7A0FFB8212148FFF79CFF33E01E490B
:101400001E48FFF75EFF06211C48FFF793FFB92136
:101410001A48FFF78FFF26E017491848FFF751FFDA
:1014200007211648FFF786FFBA211448FFF782FF0D
:1014300019E011491148FFF744FF08210F48FFF751
:1014400079FFBB210D48FFF775FF0CE00A490B48F7
:10145000FFF737FF09210948FFF76CFFBC21074858
:10146000FFF768FF00BF00BF10BD0000000C014087
:1014700000480040020118AA000207AA00380140F3
:101480001FB50121092000F061FE0120ADF80C001C
:1014900010208DF80F0003208DF80E0003A93048AE
:1014A00000F098FB0220ADF80C0028208DF80F000A
:1014B00003A92B4800F08EFB0121084600F0A0FC98
:1014C0000220019001208DF80A0000208DF808000C
:1014D00008208DF8090001A802F02AF807208DF8ED
:1014E000000001208DF8030000208DF801008DF828
:1014F0000200684601F097F81FBD10B50A2000F001
:101500004CF8022002F07AF8A8B10021154801F049
:10151000B7FF0121134801F01FFD00BF0221104851
:1015200000F0EBFB0028F9D100210E4801F014FD7A
:10153000022002F074F810BD10B504460A2C0CDD30
:101540000121074800F0F3FB204600F026F80121B6
:10155000034800F0EEFB002010BD0120FCE7000076
:10156000000C01400008004010B56FF0040001F0CD
:10157000A4F82E4800682E49B0FBF1F02D49087000
:101580000846007800EB4001C1EBC0104FF6FF7138
:1015900001EAC0002849088010BD0146254A12789A
:1015A0004A434FF0E0235A6100229A611A461269B9
:1015B00042F001021A6100BF4FF0E022106900F012
:1015C00001021AB100F48032002AF5D04FF0E02277
:1015D000126922F001024FF0E0231A6100229A61A1
:1015E00070470146144A12884A434FF0E0235A617B
:1015F00000229A611A46126942F001021A6100BF84
:101600004FF0E022106900F001021AB100F48032BC
:10161000002AF5D04FF0E022126922F001024FF0CB
:10162000E0231A6100229A61704700002C0000201C
:1016300000127A00420000204400002010B586B05D
:1016400004460121042000F081FD0121880300F0FF
:101650007DFD18208DF817004FF40070ADF81400D0
:1016600003208DF8160005A96B4800F0B3FA04209A
:101670008DF817000002ADF8140003208DF8160055
:1016800005A9654800F0A6FA01940020ADF8100005
:101690000C20ADF80E000020ADF80C00ADF80A00EB
:1016A000ADF8080001A95D4800F0F7FD01215B4895
:1016B00000F07FFE012240F22551584800F085FEDF
:1016C00025208DF8000001208DF8030000208DF802
:1016D000010002208DF80200684600F0A4FF06B069
:1016E00010BD10B586B004460121042000F02EFD87
:1016F0000121480400F037FD18208DF81700042060
:10170000ADF8140003208DF8160005A9424800F03A
:1017100061FA04208DF817000820ADF814000320AA
:101720008DF8160005A93C4800F054FA01940020F9
:10173000ADF810000C20ADF80E000020ADF80C0044
:10174000ADF80A00ADF8080001A9354800F0A5FD84
:101750000121334800F02DFE012240F2255130488E
:1017600000F033FE26208DF8000001208DF80300E4
:1017700000208DF801008DF80200684600F053FF4C
:1017800006B010BD2DE9F04107460C46154600266F
:101790000DE014F8011B384600F078FE00BF402130
:1017A000384600F0E1FE0028F9D0701C86B2AE4247
:1017B000EFDBBDE8F0810FB430B5CBB0054601AC2E
:1017C00050A800904FF4947101A8009B4F9A06F026
:1017D00049FE002000900BE014F8011B284600F0A1
:1017E00055FE00BF4021284600F0BEFE0028F9D07B
:1017F00020780028F0D14BB030BC5DF814FB10B558
:1018000040F22551054800F0C5FE18B120210348DB
:1018100000F0B7FE10BD0000000801400038014094
:10182000004400407FB505460C460121022000F02F
:101830009AFCADF80850ADF804400020ADF80A005D
:10184000ADF8060001A97E4801F02AF801221146F0
:101850007B4801F09CFB1D208DF8000000208DF8D6
:10186000010003208DF8020001208DF80300684676
:1018700000F0D9FE0121724801F06EFB7FBD10B56A
:1018800001216F4801F031FEB8B101216C4801F02F
:101890003DFE6C48007850B1FEF76DFF6A48006865
:1018A00008B9012000E000206749086005E0012038
:1018B000FEF738FF01206449086010BD7FB505467A
:1018C0000C460121084600F04EFCADF80850ADF87A
:1018D00004400020ADF80A00ADF8060001A94FF061
:1018E000804000F0DDFF01221146900701F04FFB20
:1018F0001C208DF8000000208DF8010003208DF8D9
:10190000020001208DF80300684600F08CFE0121E2
:10191000880701F021FB7FBD70B50121880701F028
:10192000E4FD00284ED0494803884948027849A17F
:101930004C4806F083FD4CA201210846FFF7FFF852
:10194000484A01210846FFF7FAF80121880701F00B
:10195000DDFD494803784948027849A1414806F02D
:101960006DFD4BA201210220FFF7E9F83D4A01215C
:101970000220FFF7E4F84A4803784A4802784AA16F
:10198000384806F05BFD4CA201210320FFF7D7F891
:10199000344A01210320FFF7D2F84B48006806F0D3
:1019A000E6F8044622460B4648A12E4806F046FDBE
:1019B0004AA201210420FFF7C2F82A4A012104208B
:1019C000FFF7BDF870BD7FB505460C460121042028
:1019D00000F0C9FB0020ADF80600ADF80850ADF8E6
:1019E0000440ADF80A0001A9404800F059FF1E204C
:1019F0008DF8000001208DF8030000208DF8010013
:101A000003208DF80200684600F00DFE0122114609
:101A1000364801F0BCFA01224021344801F0B7FAFF
:101A20000121324801F098FA7FBD10B501212F48FD
:101A300001F05BFD18B101212C4801F067FD10BDDC
:101A40000004004004000020B40122420E000020E7
:101A500014000020446973743A256420636D2025C6
:101A600064000000C0010020446973743A20202003
:101A700020202020000000000100002000000020A5
:101A800054656D703A25642E2564204300000000E3
:101A900054656D703A202020202020200000000096
:101AA000030000200200002048756D693A25642E6D
:101AB000256420252500000048756D693A20202006
:101AC0002020202000000000080000204C696768EA
:101AD000743A252E31662046780000004C6967680C
:101AE0003A20202020202020000000000008004094
:101AF0000648804706480047FEE7FEE7FEE7FEE7A8
:101B0000FEE7FEE7FEE7FEE7FEE7FEE7D305000897
:101B10003101000810B50446CC48844208D10121A7
:101B2000042000F02DFB0021042000F029FB46E0FA
:101B3000C748844208D10121082000F021FB002180
:101B4000082000F01DFB3AE0C248844208D1012180
:101B5000102000F015FB0021102000F011FB2EE0FA
:101B6000BD48844208D10121202000F009FB00215A
:101B7000202000F005FB22E0B848844208D1012172
:101B8000402000F0FDFA0021402000F0F9FA16E0B4
:101B9000B348844208D10121802000F0F1FA0021ED
:101BA000802000F0EDFA0AE0AE48844207D101211E
:101BB000801500F0E5FA0021A01500F0E1FA10BD53
:101BC00010B50121084600F0DBFA0021012000F0E9
:101BD000D7FA10BD2DE9F04102460025002600206D
:101BE00000230024002791F803C00CF00F0591F8A2
:101BF00003C00CF0100CBCF1000F03D091F802C030
:101C00004CEA050591F800C0BCF1000F31D0146812
:101C100000202BE04FF0010C0CFA00F3B1F800C0EB
:101C20000CEA03069E4220D183004FF00F0C0CFA01
:101C300003F7BC4305FA03FC4CEA040491F803C023
:101C4000BCF1280F06D14FF0010C0CFA00FCC2F8D1
:101C500014C00AE091F803C0BCF1480F05D14FF061
:101C6000010C0CFA00FCC2F810C0401C0828D1D3AB
:101C70001460B1F800C0BCF1FF0F34DD54680020DF
:101C80002EE000F1080C4FF0010808FA0CF3B1F84F
:101C900000C00CEA03069E4221D183004FF00F0CD6
:101CA0000CFA03F7BC4305FA03FC4CEA040491F870
:101CB00003C0BCF1280F05D100F1080C08FA0CF89C
:101CC000C2F8148091F803C0BCF1480F07D100F1AD
:101CD000080C4FF0010808FA0CF8C2F81080401CFC
:101CE0000828CED35460BDE8F0814FF6FF71018023
:101CF000022181700421C170704702460020936860
:101D00000B400BB1012000E00020704701468868BD
:101D100080B2704702460020D3680B400BB101200F
:101D200000E0002070470146C86880B2704701613A
:101D30007047416170470AB1016100E0416170473D
:101D4000C16070474FF480320A43826181618261D1
:101D500082698269704702460020434B18684FF63B
:101D60008073184040EA021008433F4B18607047E8
:101D70003E49C8617047F0B50A460023002400219F
:101D8000002500F00046B6F1004F02D1364EF16951
:101D900001E0354E7168C0F3034583B200F440168C
:101DA000B6F5401F08D121F070612F4E766826F0FD
:101DB00070662D4F7E6012E000F48016B6F5801F2D
:101DC00006D1032606FA05F4A14341F0706106E04E
:101DD000460D360103FA06F6B14341F0706122B1B7
:101DE000460D360103FA06F6314300F00046B6F11F
:101DF000004F02D11C4EF16101E01B4E7160F0BD3D
:101E000030B500228B071C0F0F2303FA04F2164B88
:101E100008338C1053F824309343134C08348D103E
:101E200044F8253023468C1053F824308C07240FB7
:101E300000FA04F423430C4C08348D1044F8253088
:101E400030BD0A49DC3108607047000000080140DD
:101E5000000C014000100140001401400018014036
:101E6000001C014000200140000001400000204211
:101E7000DF48006840F00100DD490860084640681E
:101E8000DC490840DA49486008460068DA490840F9
:101E9000D74908600846006820F48020086008469A
:101EA000406820F4FE0048604FF41F0088607047CF
:101EB000CF49096821F48031CD4A11601146096883
:101EC00021F480211160B0F5803F03D0B0F5802F60
:101ED0000ED106E0C649096841F48031C44A116058
:101EE00007E0C349096841F4A021C14A116000E03C
:101EF00000BF00BF704710B501460022002300203C
:101F00004A11012A02D1BA4C236806E0022A02D102
:101F1000B74C236A01E0B64C636A01F01F0201244A
:101F200094401C400CB1012000E0002010BD38B5E9
:101F3000002000900024002500BF3120FFF7DBFFC8
:101F400005460098401C00900098B0F5A06F01D0A5
:101F5000002DF2D03120FFF7CEFF08B1012400E0C0
:101F60000024204638BD01460020A14A106820F018
:101F7000F80040EAC10010607047A049086070474F
:101F8000024600209A4B586820F47C1042EA010374
:101F90001843974B58607047984908667047014648
:101FA0000020934A506820F00300084350607047B7
:101FB0008F48406800F00C007047014600208C4AB2
:101FC000506820F0F0000843506070470146002040
:101FD000874A506820F4E06008435060704701462B
:101FE0000020834A506820F4605040EAC1005060ED
:101FF000704729B17E4A527A02437D4B5A7204E0FF
:102000007B4A527A82437A4B5A7270477B49D83165
:102010000860704701460020754A506820F440402F
:102020000843506070470021714A20321170704A95
:1020300082F82010012802D004280AD104E00121EE
:102040006B4A2032117005E00521694A2032117077
:1020500000E000BF00BF70476949086070476449ED
:10206000096A0143624A1162704765494439086050
:10207000704730B500210022002400235C4D6D68BC
:1020800005F00C0121B1042905D0082923D105E070
:102090005C4D056022E05B4D05601FE0544D6D68AE
:1020A00005F47012524D6D6805F48034022505EB7D
:1020B00092421CB9544D554305600BE04C4D6D6880
:1020C00005F400351DB1504D5543056002E04D4DFE
:1020D0005543056002E04B4D056000BF00BF444D15
:1020E0006D6805F0F0010909484D6B5C0568DD403D
:1020F00045603F4D6D6805F4E061090A434D6B5C36
:102100004568DD4085603A4D6D6805F46051C90A47
:102110003E4D6B5C4568DD40C560354D6D6805F42E
:102120004041890B3A4D6B5CC568B5FBF3F5056121
:1021300030BD29B12E4A526902432D4B5A6104E049
:102140002B4A526982432A4B5A61704729B1284A67
:1021500092690243264B9A6104E0254A92698243C0
:10216000234B9A61704729B1214AD2690243204B1F
:10217000DA6104E01E4AD26982431D4BDA6170477E
:1021800029B11B4AD2680243194BDA6004E0184AAD
:10219000D2688243164BDA60704729B1144A12693B
:1021A0000243134B1A6104E0114A12698243104B37
:1021B0001A61704712494039086070470F49C86476
:1021C00070470B49C87170470948406A40F08070F9
:1021D00007494862704701460020054A92680A4054
:1021E0000AB1012000E00020704701498872704761
:1021F000001002400000FFF8FFFFF6FE0000424220
:102200008004424200127A0000093D00460000208E
:102210005600002010B50446FB48844209D1012134
:102220008803FFF7ADFF00214FF48040FFF7A8FFC0
:1022300032E0F648844209D101214804FFF7ADFF9E
:1022400000214FF40030FFF7A8FF25E0F04884425A
:1022500009D101218804FFF7A0FF00214FF480205D
:10226000FFF79BFF18E0EB48844209D10121C80425
:10227000FFF793FF00214FF40020FFF78EFF0BE0E4
:10228000E548844208D101210805FFF786FF0021B7
:102290004FF48010FFF781FF10BD2DE9F04786B0A5
:1022A00005460E460024A24600BFA1460027B0897D
:1022B00000B100BF2F462C8A4CF6FF700440F08816
:1022C00004432C82AC894EF6F3100440B088318967
:1022D0000843718908430443AC81AC8A4FF6FF4040
:1022E0000440B0890443AC8201A8FFF7C2FEC6488F
:1022F000874202D1DDF810A001E0DDF80CA0A8892A
:1023000000F4004040B10AEBCA0000EB0A1031684B
:102310004900B0FBF1F807E00AEBCA0000EB0A1035
:1023200031688900B0FBF1F86420B8FBF0F00401DB
:102330002009642101FB1089A88900F4004040B104
:10234000322000EBC900B0FBF1F000F007000443BD
:1023500008E0322000EB09106421B0FBF1F000F03E
:102360000F0004432C8106B0BDE8F0874FF41651EE
:10237000016000218180C18001810C214181002107
:102380008181704710B502460020108A4FF2FF038A
:1023900018400B884C8823438C882343CC882343E4
:1023A0001843108210BD0021018041808180C180CE
:1023B000704721B1828942F40052828104E082890F
:1023C0004DF6FF731A4082817047F0B50346002432
:1023D00000260025002040F66A17B94200D100BF50
:1023E0001846C1F3421401F01F06012707FA06F54B
:1023F000012C01D10C3004E0022C01D1103000E09E
:1024000014301AB107682F43076002E00768AF4332
:102410000760F0BD1AB1838A0B43838202E0838A8E
:102420008B4383827047028A4FF6F0731A40028210
:10243000028A0A430282704782894FF2FF731A4070
:10244000828182890A438281704721B1828942F068
:102450000202828104E082894FF6FD731A40828174
:102460007047028A4FF6DF731A400282028A0A43DB
:102470000282704721B1028A42F48042028204E063
:10248000028A4BF6FF731A4002827047C1F30802BA
:102490008280704701468888C0F3080070478189B0
:1024A00041F0010181817047028BD2B20283028B1D
:1024B00042EA012202837047028B02F47F420283C8
:1024C000028B0A430283704721B1828A42F02002C4
:1024D000828204E0828A4FF6DF731A40828270475C
:1024E00021B1828A42F01002828204E0828A4FF691
:1024F000EF731A408282704721B1828A42F008024B
:10250000828204E0828A4FF6F7731A408282704713
:1025100021B1828942F40042828103E08289C2F3C0
:102520000E028281704721B1828A42F40062828267
:1025300004E0828A4FF2FF731A4082827047828AD7
:102540004FF6FB731A408282828A0A438282704766
:1025500021B1828A42F00202828204E0828A4FF62E
:10256000FD731A408282704702460020B1F5007F59
:1025700000D100BF13880B400BB1012000E0002008
:10258000704701F40072B2F5007F00D100BFCA436A
:102590000280704770B50246002400230025002009
:1025A00040F66A16B14200D100BFC1F3421501F0F6
:1025B0001F03012606FA03F3012D02D19689334049
:1025C00006E0022D02D1168A334001E0968A33409C
:1025D0000C12012606FA04F41688344013B10CB12B
:1025E000012000E0002070BD10B50022002340F65D
:1025F0006A14A14200D100BF0A1201249440A3B280
:10260000DC43048010BD000000380140004400405D
:1026100000480040004C0040005000403149014358
:10262000314A1160704770B5002100230F22C47831
:1026300004B32D4C246804F4E064C4F5E064210A7A
:10264000C1F10403CA40447804FA03F184781440C9
:1026500021430901254C0678A155047804F01F0593
:102660000124AC4005786D11AD0005F1E025C5F8F9
:10267000004109E0047804F01F050124AC401C4D22
:102680000678761145F8264070BD1A4A0A40024382
:10269000154B1B1F1A60704739B1134A121D12687F
:1026A0000243114B1B1D1A6006E00F4A121D1268EF
:1026B00082430D4B1B1D1A607047042808D14FF050
:1026C000E021096941F004014FF0E022116107E0C7
:1026D0004FF0E021096921F004014FF0E02211617F
:1026E000704700000000FA050CED00E000E400E097
:1026F00080E100E080FFFF1F10B50446FE488442E1
:1027000008D10121C014FFF73BFD0021E014FFF7C1
:1027100037FDC4E0B4F1804F08D101210846FFF72E
:102720003CFD00210120FFF738FDB8E0F34884426A
:1027300008D101210220FFF730FD00210220FFF720
:102740002CFDACE0EE48844208D101210420FFF7C3
:1027500024FD00210420FFF720FDA0E0E948844289
:1027600008D101210820FFF718FD00210820FFF7FC
:1027700014FD94E0E448844208D101211020FFF7C1
:102780000CFD00211020FFF708FD88E0DF4884429F
:1027900008D101212020FFF700FD00212020FFF7B4
:1027A000FCFC7CE0DA48844208D101214014FFF7A8
:1027B000E7FC00216014FFF7E3FC70E0D548844299
:1027C00009D10121C804FFF7DBFC00214FF40020F0
:1027D000FFF7D6FC63E0D048844209D10121080507
:1027E000FFF7CEFC00214FF48010FFF7C9FC56E044
:1027F000CA48844209D101214805FFF7C1FC0021E4
:102800004FF40010FFF7BCFC49E0C548844208D1F2
:1028100001214020FFF7C1FC00214020FFF7BDFC53
:102820003DE0C048844208D101218020FFF7B5FC7B
:1028300000218020FFF7B1FC31E0BB48844208D181
:1028400001218015FFF7A9FC0021A015FFF7A5FCC9
:1028500025E0B648844209D101210804FFF790FC25
:1028600000214FF48030FFF78BFC18E0B048844221
:1028700009D101214804FFF783FC00214FF4003007
:10288000FFF77EFC0BE0AB48844208D101218804AD
:10289000FFF776FC00214FF48020FFF771FC10BD9C
:1028A00000220288944B98420ED0994B98420BD04C
:1028B000B0F1804F08D0914B984205D0904B984290
:1028C00002D0904B984204D14FF68F731A404B8838
:1028D0001A438D4B984207D08C4B984204D04FF648
:1028E000FF431A40CB881A4302808B8883850B886C
:1028F0000385814B98420BD0854B984208D08B4B77
:10290000984205D08A4B984202D08A4B984201D116
:102910000B7A038601238382704770B5002400225E
:102920000023058C4FF6FE7635400584028C8388A3
:10293000048B4FF68F752C40B51E2C400D882C4310
:10294000751E2A400D892A434D882A436A4DA842A4
:102950000BD06F4DA84208D0744DA84205D0744DDD
:10296000A84202D0734DA84213D14FF6F7752A4002
:102970004D892A434FF6FB752A408D882A434FF62E
:10298000FF652B404FF6FF552B408D892B43CD899A
:102990002B4383800483CD888586028470BD70B507
:1029A000002400220023058C4FF6EF763540058485
:1029B000028C8388048B48F6FF752C404FF6FF4548
:1029C0002C400D884FF6FF7606EA05252C434FF67E
:1029D000DF752A400D8906EA05152A434D8806EA67
:1029E00005152A43444DA84202D0494DA8421DD1A5
:1029F0004FF67F752A404D894FF6FF7606EA05159A
:102A00002A434FF6BF752A408D8806EA05152A43EA
:102A10004FF6FF352B404FF2FF752B408D8906EAAC
:102A200085052B43CD8906EA85052B4383800483E6
:102A3000CD880587028470BD70B500240022002374
:102A4000058C4FF6FF6635400584028C8388848BA5
:102A50004FF68F752C404FF6FC752C400D882C439B
:102A60004FF6FF552A400D894FF6FF7606EA0525F9
:102A70002A434D8806EA05252A431F4DA84202D065
:102A8000234DA8421DD14FF2FF752A404D894FF6C4
:102A9000FF7606EA05252A434FF6FF352A408D8842
:102AA00006EA05252A434EF6FF752B404DF6FF75C5
:102AB0002B408D8906EA05152B43CD8906EA0515BD
:102AC0002B4383808483CD888587028470BD70B555
:102AD000002200230024058C4EF6FF763540058445
:102AE000038C8488828B48F6FF752A404FF6FF4599
:102AF0002A400D8820E00000002C01400004004026
:102B000000080040000C004000100040001400408D
:102B100000340140004C014000500140005401408D
:102B200000180040001C0040002000400040014010
:102B300000440140004801404FF6FF7606EA0525B3
:102B40002A434DF6FF752B400D8906EA05352B43C8
:102B50004D8806EA05352B43FA4DA84202D0FA4DBE
:102B6000A84208D14BF6FF752C408D894FF6FF76B1
:102B700006EA85152C4384808283CD88A0F84050D6
:102B8000038470BD828B4FF2FF331A408283828BA5
:102B90004FF6FF7303EA01231A4382837047F0B5AF
:102BA0000C461546002200210026078C4EF6FF7CBD
:102BB00007EA0C070784828B018C4FF6FF7707EA40
:102BC000043640F6FF473A404FF6FF7707EA0527FD
:102BD0003A434FF6FF7707EA03373A43D94FB842F3
:102BE0000ED0D94FB8420BD0B0F1804F08D0D74F9C
:102BF000B84205D0D64FB84202D0D64FB84206D11F
:102C00004DF6FF77394046F48057394305E047F6E3
:102C1000FF57394044F48057394382830184F0BD23
:102C2000828B4FF6F3731A408283828B0A4382832E
:102C30007047F0B50C461546002200210026078C8F
:102C40004FF6FF6C07EA0C070784828B018C4FF666
:102C5000FF7707EA04264FF60C773A404FF6FF77E6
:102C600007EA03172F433A43B64FB8420ED0B64F88
:102C7000B8420BD0B0F1804F08D0B44FB84205D065
:102C8000B34FB84202D0B34FB84206D14FF6FF5708
:102C9000394046F48077394305E04FF2FF57394019
:102CA00044F48077394382830184F0BD028B4FF274
:102CB000FF331A400283028B4FF6FF7303EA0123AE
:102CC0001A4302837047F0B50C46154600220021D6
:102CD0000026078C4FF6EF7C07EA0C070784028B6F
:102CE000018C4FF6FF7707EA041640F6FF473A409B
:102CF0004FF6FF7707EA03373A434FF6FF7707EAC5
:102D000005273A438F4FB8420ED08F4FB8420BD0B1
:102D1000B0F1804F08D08D4FB84205D08C4FB842EB
:102D200002D08C4FB84206D14FF6DF77394046F0DB
:102D30001007394305E04FF65F77394044F010073C
:102D4000394302830184F0BD028B4FF6F3731A40BE
:102D50000283028B0A4302837047F0B50C46154686
:102D600000220021068C4FF6FE773E400684028B3F
:102D7000018C4FF60C7632407E1C06EA03162E4379
:102D80003243704EB0420ED06F4EB0420BD0B0F115
:102D9000804F08D06D4EB04205D06D4EB04202D08B
:102DA0006C4EB04206D14FF6FD76314044F001063C
:102DB000314305E04FF6F576314044F001063143EA
:102DC00002830184F0BD70B505460C465D4885421E
:102DD0000ED05D4885420BD0B5F1804F08D05B48DE
:102DE000854205D05A48854202D05A48854200D1D2
:102DF00000E000BF208850B92389A2886188284656
:102E0000FFF7ABFFE1882846FFF79EFF25E020880B
:102E100004280AD12389A28861882846FFF753FF36
:102E2000E1882846FFF742FF17E0208808280AD1EA
:102E30002389A28861882846FFF7FBFEE18828469F
:102E4000FFF7EEFE09E02389A28861882846FFF794
:102E5000A6FEE1882846FFF795FE70BD2DE9F041FA
:102E600005460C4600260127608808B9022600E0C6
:102E70000026A088012801D1022700E00127208830
:102E8000A0B92389A28861882846FFF766FFE188F8
:102E90002846FFF759FF23893A4631462846FFF76F
:102EA00012FFE1882846FFF701FF13E02389A2887B
:102EB00061882846FFF707FFE1882846FFF7F6FEFE
:102EC00023893A4631462846FFF747FFE1882846DE
:102ED000FFF73AFFBDE8F0810A884B881A438B88D8
:102EE0001A43CB881A430B891A434B891A438B899F
:102EF0001A43A0F8442070474FF6FF7181800021EB
:102F00000180C180418001727047002101804180B1
:102F10008180C180018141818181C181704700210F
:102F200001804180012181800021C18001817047A1
:102F30000021018041808180C180018141818181A6
:102F400070470000002C01400034014000040040A4
:102F500000080040000C004021B1028842F001024C
:102F6000028004E002884FF6FE731A400280704728
:102F700031B1B0F8442042F40042A0F8442005E00A
:102F8000B0F84420C2F30E02A0F8442070471AB1F2
:102F900083890B43838102E083898B43838170475C
:102FA0008182704741EA0203A0F8483070471AB1A5
:102FB00083890B43838102E083898B43838170473C
:102FC00001894FF6F8721140018170470A460021CD
:102FD00001894FF68F73194011430181704730B555
:102FE00004460D4629462046FFF7F0FF208940F0B1
:102FF0000700208130BD2DE9F04104460D461646FC
:103000001F46602D06D13B46012231462046FFF780
:103010005AFE05E03B46012231462046FFF79DFE61
:1030200029462046FFF7D2FF208940F00700208183
:10303000BDE8F08130B50C4600210189C9B24FF6D8
:10304000FF7505EA0325154325432943018130BD5A
:103050002DE9F04105460E461746984600244346A2
:103060003A4631462846FFF7E5FF2C894FF6F870BF
:10307000044044F007044FF68F70044044F070049D
:103080002C81BDE8F081F0B504460D4616461F467A
:103090003B46324629462046FFF7CCFF208940F4C4
:1030A00080402081F0BD0185828270470A46002160
:1030B00001884FF68F731940114301807047F0B5B6
:1030C0000C4615461E460021002200230189028B72
:1030D000038C4FF6F877394021434FF6FC473A40CE
:1030E00040F201173A434FF6DD773B404FF6FF774A
:1030F00007EA06172F433B43018102830384F0BD97
:103100000A460021018B4FF68F731940114301834A
:1031100070470A460021018B48F6FF7319404FF6AD
:10312000FF7303EA02231943018370470A46002113
:10313000818B4FF68F7319401143818370470A4684
:103140000021818B48F6FF7319404FF6FF7303EAA5
:10315000022319438183704721B1028842F0800223
:10316000028004E002884FF67F731A4002807047A5
:1031700021B1828842F00402828004E082884FF606
:10318000FB731A408280704721B1828842F00802A6
:10319000828004E082884FF6F7731A40828070477D
:1031A00021B1828842F00102828004E082884FF6D9
:1031B000FE731A40828070470A460021018B4FF649
:1031C000F77319401143018370470A460021018BB0
:1031D0004FF2FF7319404FF6FF7303EA02231943BE
:1031E000018370470A460021818B4FF6F77319401F
:1031F0001143818370470A460021818B4FF2FF7390
:1032000019404FF6FF7303EA022319438183704785
:103210000A460021018B4FF6FB73194011430183CD
:1032200070470A460021018B4FF6FF3319404FF6D5
:10323000FF7303EA02231943018370470A46002102
:10324000818B4FF6FB7319401143818370470A4607
:103250000021818B4FF6FF3319404FF6FF7303EACD
:1032600002231943818370470A460021018B4FF6E0
:103270007F7319401143018370470A460021018B77
:10328000C1F30E014FF6FF7303EA022319430183D2
:1032900070470A460021818B4FF67F731940114316
:1032A000818370470A460021818BC1F30E014FF6DE
:1032B000FF7303EA02231943818370470A46002102
:1032C000018C4FF6FD7319401143018470470A4683
:1032D0000021018C4FF6F7731940114301847047A8
:1032E0000A460021018C4FF6DF7319404FF6FF7339
:1032F00003EA02131943018470470A460021018C36
:103300004FF67F7319404FF6FF7303EA0213194318
:10331000018470470A460021018C4FF6FF53194083
:103320004FF6FF7303EA02231943018470470A46EC
:103330000021018C4FF2FF7319404FF6FF7303EA2F
:1033400002231943018470470A460021018C4DF67F
:10335000FF7319404FF6FF7303EA023319430184E8
:10336000704730B5002301248C40A3B2048C9C43E9
:103370000484048C02FA01F5ADB22C43048430BD00
:1033800030B5002304248C40A3B2048C9C430484F5
:10339000048C02FA01F5ADB22C43048430BD70B543
:1033A0000346002000241846183001258D40ACB299
:1033B0001D8CA5431D8409B1082909D100EB6100CA
:1033C000056825F0700505600568154305600EE089
:1033D0000D1FC5F34E052844056825F4E04505603A
:1033E00005684FF6FF7606EA02263543056070BD94
:1033F00021B1028842F00202028004E002884FF606
:10340000FD731A400280704721B1028842F0040225
:10341000028004E002884FF6FB731A400280704776
:1034200021B1828842F08002828004E082884FF6D7
:103430007F731A408280704702884FF6F7731A40F4
:10344000028002880A430280704782884FF68F7399
:103450001A40828082880A438280704702894FF630
:10346000F8731A40028102890A4302817047028977
:103470004FF67F731A40028102890A430281704726
:1034800081847047818570478186704701877047C6
:1034900081877047A0F84010704702884FF6FF43BD
:1034A0001A40028002880A43028070470146888ED3
:1034B00070470146088F70470146888F7047014664
:1034C000B1F8400070470146888C70470146088D6E
:1034D000704702460020138A0B400BB1012000E028
:1034E00000207047CA430282704730B50246002070
:1034F00000230024158A05EA0103958905EA0104E1
:1035000013B10CB1012000E0002030BDCA4302829B
:1035100070470000002044490860091D0860091D2B
:103520000860091D086041483F4914310860704730
:1035300000213D498279002A3AD00A461268036880
:103540009A430B461A600A1D126803689A430B1DC2
:103550001A60027911440A6803681A430A60324A01
:103560000832126803689A432F4B08331A601A1DF9
:10357000126803689A432C4B0C331A604279102A64
:103580000ED11A1F126803681A43274B08331A60BA
:103590001A1D126803681A43234B0C331A600DE09E
:1035A0002149427911440A6803681A430A6005E018
:1035B000027911440A6803689A430A60704700213F
:1035C000016001710C214171002181717047164920
:1035D000103109680143144A1032116070470146E6
:1035E0000020114A143212680A400AB1012000E09A
:1035F000002070470C4914310860704701460020D4
:103600000022094B1B6803EA0102074B14331B68B5
:103610000B4013B10AB1012000E0002070470249BD
:10362000143108607047000000040140FFFF0F00E4
:1036300010B58021914803F012FE002090490880C7
:1036400010BD8F48008808B9012070478C48008859
:103650008C490988884203D1002089490880F4E711
:1036600087480088874908800120EEE72DE9F0416E
:1036700004460D46C826204603F018FE87B23A4697
:1036800021468148FEF77EF80FE0FFF7DAFF48B9E0
:1036900029467A4803F0EEFD20B1FFF7C9FF00206C
:1036A000BDE8F0810A20FDF79CFF301EA6F1010164
:1036B000CEB2EAD10120F3E730B589B004460D4619
:1036C000FFF7B6FF2A4671A101A804F0B7FE73A167
:1036D00001A8FFF7CBFF20B92A4621466A48FEF72A
:1036E00051F809B030BD70B50546002400BFFFF7A2
:1036F000A8FF80B96AA1614803F0BCFD044654B13B
:103700003A21204603F0C8FD044614B1641C20464B
:1037100070BD0020FCE70520FDF763FF681E85B241
:10372000002DE4DC0020F3E708B501211020FEF7AE
:103730000DFD10208DF803008002ADF8000003207D
:103740008DF8020069465848FEF744FA00224FF40B
:1037500080415548FEF7EFFAFA20FDF742FF0122BB
:1037600091035148FEF7E7FA4FF4FA70FDF739FF7D
:10377000FFF75EFF4DA15048FEF71DF803E04FF440
:10378000FA70FDF72EFF4DA149A0FFF76FFF00284B
:10379000F5D14BA14848FEF70EF842A14BA0FFF728
:1037A00065FF4FF4FA70FDF71CFF3EA14AA0FFF73A
:1037B0005DFF4FF4FA70FDF714FF4BA13E48FDF793
:1037C000FAFF03E04FF4FA70FDF70BFF3BA149A0AD
:1037D000FFF74CFF0028F5D14AA13748FDF7EBFF72
:1037E00003E04FF4FA70FDF7FCFE34A149A0FFF7A7
:1037F0003DFF0028F5D14BA12F48FDF7DCFF03E08A
:103800004FF4FA70FDF7EDFE49A14BA0FFF72EFF34
:103810000028F5D150A12848FDF7CDFF03E04FF473
:10382000FA70FDF7DEFE50A151A0FFF71FFF002840
:10383000F5D15AA12048FDF7BEFF08BD10B540F2F2
:1038400025511148FEF7A6FEB0B10D48008880282A
:1038500002D300200A4908800B48001D0088C1B22D
:10386000074802880088401C054B18800348815493
:1038700020210548FEF785FE10BD00000002002053
:103880005A0000205C0000200044004041542B43BB
:10389000495053454E443D25640D0A003E0000004A
:1038A0004950442C00000000001001400A302E2036
:1038B00041540D0A00000000003801404F4B000049
:1038C000312E205253540D0A0000000041542B5257
:1038D00053540D0A0000000041542B434950434CFF
:1038E0004F53450D0A000000322E2043574D4F44E0
:1038F000450D0A0041542B43574D4F44453D310D72
:103900000A000000332E2041542B435744484350B3
:103910000D0A000041542B4357444843503D312C7D
:10392000310D0A00342E2043574A41500D0A000041
:10393000474F54204950000041542B43574A4150AF
:103940003D2247544E42222C223132333435363711
:10395000383940220D0A0000352E20434950535477
:103960004152540D0A000000434F4E4E454354004F
:1039700041542B43495053544152543D22544350D7
:10398000222C2262726F6B65722E656D71782E69C2
:103990006F222C313838330D0A000000362E2045B6
:1039A00053503832363620496E6974204F4B0D0A19
:1039B0000000000070B504460E460025206898B946
:1039C00001202073304604F095FD20602068E0B1AE
:1039D00000206060A66003E00020216848556D1C4F
:1039E000A068A842F8D810E00220207303E000206D
:1039F000216848556D1CA068A842F8D80020606076
:103A0000A068B04201D20020206070BD10B504460D
:103A1000207B012802D1206804F03EFD00202060B8
:103A20006060A060207310BD0246002301230DE0FA
:103A300002F07F000870D2092AB1087840F08000B7
:103A40000870491C01E0184670475B1C042BEFDD31
:103A50004FF0FF30F8E7F0B504460D462646012347
:103A600000201060002114E0775C07F07F071068E9
:103A700007FB03001060705C00F0800008B9481C70
:103A8000F0BDDB01B3F5001F02D36FF00100F7E7D3
:103A9000491CA942E8DB4FF0FF30F1E7F8B50446D6
:103AA000FF2720780511012D01DB0E2D01DD3846A1
:103AB000F8BD032D24D1002000906A460421601C2B
:103AC000FFF7C9FF2044461C0098022803D3207842
:103AD00000F0010008B1FF20EAE77078317840EA91
:103AE0000120801C0099884201D9FF20E0E7F8A15D
:103AF000B01C03F0BFFB08B10F2700E0032700E074
:103B00002F463846D4E72DE9FF4F83B082468B46D7
:103B10009146159C0025002002900F2701904846F1
:103B200003F0C4FB0FFA80F8B9F1000F03D10120B4
:103B300007B0BDE8F08F08F10200384487B2109852
:103B400008B145F00205129878B145F004051298C5
:103B500003F0ACFBC0B20290139803F0A7FB014640
:103B60000298001D0844384487B2119820B10128FA
:103B700004D0022808D104E000BF07E045F00C059E
:103B800004E045F0140501E00220D1E700BF1498DD
:103B900008B145F02405BAF1000F02D0BBF1000FC7
:103BA00001D10320C4E745F0C005504603F07EFB79
:103BB0000646584603F07AFB3044001D384487B26D
:103BC00039462046FFF7F6FE206808B90420AFE723
:103BD0003946206803F043FB10216268501C606086
:103BE00020688154D4E90023D118781FFFF71CFF07
:103BF00000B201900198002804DA2046FFF706FF82
:103C0000052095E7616801980844606000216268BA
:103C1000501C60602068815404216268501C606000
:103C2000206881544D216268501C60602068815476
:103C300051216268501C6060206881545421626880
:103C4000501C6060206881546268501C606020686D
:103C5000815404216268501C60602068815461684E
:103C6000481C6060206845540698010A6268501C30
:103C70006060206881540698C1B26268501C606020
:103C800020688154C8F307216268501C6060206876
:103C900081546268501C6060206800F80280D4E99A
:103CA000001288184246494603F015FB60684044FC
:103CB000606005F00400B8B30026139808B986A028
:103CC0001390129803F0F2FA86B2310A6268501C1F
:103CD0006060206881546268501C6060206886546F
:103CE000D4E9001288183246129903F0F4FA606899
:103CF00030446060139803F0D9FA86B2310A6268E2
:103D0000501C6060206881546268501C60602068AC
:103D10008654D4E9001288183246139903F0DBFA6E
:103D200060683044606000BF05F08000C8B1504654
:103D300003F0BCFA86B2310A6268501C60602068E9
:103D400081546268501C606020688654D4E9001277
:103D500088183246514603F0BEFA6068304460600D
:103D600000BF05F04000C8B1584603F09FFA86B284
:103D7000310A6268501C6060206881546268501C7F
:103D8000606020688654D4E900128818324659468B
:103D900003F0A1FA60683044606000BF0020C7E60D
:103DA00010B5044602212046FFF704FE206808B93A
:103DB000012010BDE0216268501C606020688154C1
:103DC00000216268501C6060206881540020F0E788
:103DD00001464878022801D001207047887810B148
:103DE0008878012801D1C878F7E7FF20F5E72DE9A9
:103DF000FF4F83B0834617469946139C0025002643
:103E00000020029001908046BBF1000F03D10120F9
:103E100007B0BDE8F08F00260AE00498805D2328F3
:103E200003D00498805D2B2801D10220F0E7761C96
:103E30000498805D0028F0D148F03008119808B14E
:103E400048F0010806EB0900851C109820B10128F4
:103E500004D002280AD105E000BF09E048F00208BA
:103E6000AD1C05E048F00408AD1C01E00320CFE7DD
:103E700000BF67B33878022821D14FF0000A00BF95
:103E800050460AF1010A385C7D28F9D1AAF1030AEB
:103E90000AF1070002900298A9EB000AE81CA0EBC7
:103EA0000A012046FFF786FD206808B90420AFE725
:103EB000EA1CA2EB0A01206803F0D1F91FE0691D9A
:103EC0002046FFF777FD206840B90420A0E70AE00C
:103ED000246372657100000000000000691D206805
:103EE00003F0BDF90BE0691D2046FFF763FD206874
:103EF00008B904208CE7691D206803F0B0F96168F7
:103F0000481C6060206800F80180D4E90002811834
:103F10002846FFF789FD01900198002804DA204621
:103F2000FFF774FD052073E761680198084460603D
:103F3000C6F307216268501C606020688154626883
:103F4000501C606020688654D4E9001288183246FC
:103F5000049903F0C0F9606830446060109860B163
:103F60004FEA1B216268501C6060206881546268BF
:103F7000501C6060206800F802B0C7B13878022891
:103F80000BD1D4E9001288183946029A03F04EF991
:103F9000616802980844606009E0D4E9001288185A
:103FA0004A46394603F042F96068484460600020A0
:103FB0002EE72DE9FF4107460D4690461E460A9C16
:103FC00001200021CDE90001EB1C0A46FAA1CDE950
:103FD00002040A20FFF70BFF88B96168481C606083
:103FE00020684654C5F307216268501C6060206851
:103FF00081546268501C60602068855403E0012091
:1040000004B0BDE8F0810020FAE72DE9F04F85B05B
:1040100080460D469146012004900027002600248A
:104020004FF0000A404603F041F900F10D0B5846ED
:1040300004F060FA07461FB9049805B0BDE8F08F98
:104040004246DEA1384604F0F9F9384603F02EF96D
:10405000C6B2F01D00EB050AAAEB050004F04AFA0F
:10406000044624B9384604F017FA0498E5E702201C
:10407000207000206070A67032463946E01C03F0C4
:10408000D5F8290EF01C2154C5F30741301D2154E9
:10409000C5F30721701D2154B01D255401200021B6
:1040A000CDE9000153462246C3A1CDE902090A2009
:1040B000FFF79DFE08B900200490384604F0ECF9A3
:1040C000204604F0E9F90498B7E72DE9F843804663
:1040D0000C4615461E462F2108F1060003F0DCF8B9
:1040E00007460020009017B90120BDE8F8837F1C27
:1040F0006A46042108F10100FFF7ADFC252004F019
:10410000F9F92060206808B90220EEE7252120682F
:1041100003F0A5F824223946206803F087F82437F5
:1041200000982C3830803188481C04F0E3F928606E
:10413000286820B9206804F0AFF90320D5E7328859
:10414000511C286803F08BF832883946286803F040
:104150006DF80020C9E72DE9FF5F07460D46904640
:10416000384603F0A3F886B2284603F09FF81FFAFA
:1041700080FA4FF00009F01D04F0BCF904461CB9A8
:10418000012004B0BDE8F09FF11D204603F067F860
:104190008EA0016821608088A08032463946204682
:1041A00003F099F8284603F081F8834601200021A6
:1041B00000915B462A46CDE90208019121460A207A
:1041C000FFF715FE10B94FF0000901E04FF00109AB
:1041D000204604F061F94846D3E72DE9FF5F8046A9
:1041E000174699460E9C0026B246B3460025B8F104
:1041F000000F03D1012004B0BDE8F09F0BE057F899
:10420000250008B90220F6E757F8250003F04EF81C
:104210000644681CC5B24D45F1DB09EB4900801C22
:1042200000EB060A0AF105012046FFF7C3FB2068F0
:1042300008B90320DFE782216268501C60602068B3
:104240008154D4E9000281185046FFF7EDFB0FFAC4
:1042500080FBBBF1000F04DA2046FFF7D7FB0420F8
:10426000C9E76068584460604FEA18216268501CD2
:104270006060206881546268501C6060206800F8AB
:104280000280002524E057F8250003F00FF80646C9
:10429000C6F307216268501C606020688154626820
:1042A000501C606020688654D4E90023D01857F869
:1042B0002510324603F00FF86068304460600198C2
:1042C000C1B26268501C606020688154681CC5B22D
:1042D0004D45D8DB00208EE70146FF208A78A2B941
:1042E000CA78142A11D10A7932B1012A05D0022ADA
:1042F00004D0802A06D103E000BF00BF002003E005
:10430000012001E0022000BF00BF70472DE9F05FEF
:1043100080460F4691461C460026B246B34600250D
:10432000B8F1000F02D10120BDE8F09F0BE057F873
:10433000250008B90220F7E757F8250002F0B6FF7C
:104340000644681CC5B24D45F1DB022000EB490074
:1043500000EB060A0AF105012046FFF72BFB206857
:1043600008B90320E0E7A2216268501C6060206861
:104370008154D4E9000281185046FFF755FB0FFA2B
:1043800080FBBBF1000F04DA2046FFF73FFB04205F
:10439000CAE76068584460604FEA18216268501CA0
:1043A0006060206881546268501C6060206800F87A
:1043B000028000252CE00000246470007B226473DE
:1043C0005F6964223A222573227D000024637273A0
:1043D000702F000057F8250002F068FF0646C6F36C
:1043E00007216268501C6060206881546268501C1C
:1043F000606020688654D4E90023D01857F825104F
:10440000324602F068FF606830446060681CC5B2E4
:104410004D45DFDB002087E7014601208A781AB985
:10442000CA781E2A00D1002070472DE9FC5F814622
:104430000D4614461E46DDE90C8B99F8000000F08D
:104440000F0A002001900AF008000090CAF3410012
:104450008BF8000001AA042109F10100FFF7FBFA23
:104460004844471C0198022802D30AF0010010B109
:10447000FF20BDE8FC9F7878397840EA0120208051
:104480002088801C0199884201D9FF20F1E7AFF212
:10449000C051B81C02F0EEFE08B10F20E9E79BF80E
:1044A000000020B101283DD0022877D13BE00098E0
:1044B00008B1FF20DDE72188481C04F01BF82860C4
:1044C000286808B9FF20D4E72288511C286802F028
:1044D000C6FE2288B91C286802F0A8FE0198801E3A
:1044E0002188401AA8F80000B8F80010481C04F011
:1044F00001F83060306820B9286803F0CDFFFF2054
:10450000B7E7B8F80020511C306802F0A8FEB8F8F0
:104510000020B4F800C0BB1C0CEB0301306802F0B3
:1045200085FE4FE000BF2088801C0199884201D998
:10453000FF209EE72088C01C395C2088801C385CE6
:1045400041EA00210E9801800E9808B9FF2090E7FB
:104550002188481C03F0CEFF2860286808B9FF2096
:1045600087E72288511C286802F079FE2288B91C4E
:10457000286802F05BFE0198001F2188401AA8F805
:104580000000B8F80010481C03F0B4FF3060306839
:1045900028B9286803F080FFFF206AE710E0B8F828
:1045A0000020511C306802F05AFEB8F80020B4F820
:1045B00000C03B1D0CEB0301306802F037FE01E048
:1045C000FF2056E700BF2B21284602F065FE20B9E8
:1045D0002321284602F060FE08B1FF2049E70020B1
:1045E00047E770B505460C4604212046FFF7E2F97F
:1045F000206808B9012070BD40216268501C6060CD
:104600002068815402216268501C606020688154D7
:1046100029126268501C6060206881546268501CD6
:104620006060206885540020E5E70146487802284C
:1046300001D001207047887820B9C8780A2801D1B4
:104640000020F7E70120F5E770B505460C46042188
:104650002046FFF7AFF9206808B9012070BD50214E
:104660006268501C60602068815402216268501C9E
:1046700060602068815429126268501C6060206864
:1046800081546268501C6060206885540020E5E712
:1046900001464878022801D001207047887820B967
:1046A000C8780A2801D10020F7E70120F5E770B5A6
:1046B00005460C4604212046FFF77CF9206808B91E
:1046C000012070BD62216268501C606020688154C6
:1046D00002216268501C606020688154291262685F
:1046E000501C6060206881546268501C60602068C3
:1046F00085540020E5E702465078022801D00120C9
:1047000070479078B0EB112F05D1D078CBB298429A
:1047100001D10020F4E70120F2E770B505460C4610
:1047200004212046FFF746F9206808B9012070BD32
:1047300070216268501C60602068815402216268A8
:10474000501C60602068815429126268501C6060AF
:10475000206881546268501C606020688554002085
:10476000E5E701464878022801D0012070478878A3
:1047700020B9C8780A2801D10020F7E70120F5E721
:1047800010B5044602212046FFF714F9206808B945
:10479000012010BDC0216268501C606020688154F7
:1047A00000216268501C6060206881540020F0E79E
:1047B00030B58BB000200790089009900A90012531
:1047C000DBA0DDA3DEA2E0A10090EB48FCF7F3FF45
:1047D00007A8002102910391CDE9041000912B025A
:1047E000D3A20191D4A1D6A0FFF78DF9002842D120
:1047F000089A91B20798FEF75FFFFA20FEF773FF61
:104800000446002C33D02046FFF748F902282ED169
:104810002046FFF7DDFA062823D2DFE800F003097F
:104820000E13181DD5A1D448FCF7C5FF00251DE0C7
:10483000D7A1D148FCF7BFFF18E0DCA1CE48FCF7B8
:10484000BAFF13E0E2A1CC48FCF7B5FF0EE0E8A107
:10485000C948FCF7B0FF09E0EEA1C748FCF7ABFF81
:1048600004E0F7A1C448FCF7A6FF00BF00BF07A8FB
:10487000FFF7CCF803E0F9A1BF48FCF79CFF2846FE
:104880000BB030BD70B586B004460D460026002042
:10489000029003900490059007E054F82620F8A1B8
:1048A000B548FCF788FF701CC6B2AE42F5DB02A823
:1048B0002B462246002100901420FFF78EFC38B9C9
:1048C000039A91B20298FEF7F7FE02A8FFF79EF84E
:1048D00006B070BD70B588B005460C460020049047
:1048E00005900690079023462A46EBA1A248FCF7C4
:1048F00062FF204602F0DAFC064604A801210022ED
:1049000000923346CDE901210390224629460A2030
:10491000FFF76DFA38B9059A91B20498FEF7CCFE0C
:1049200004A8FFF773F808B070BD2DE9F04F8FB001
:10493000814600200B900C900D900E900A900990EB
:10494000089007908046069000270025824648463A
:10495000FFF7A4F88046A8F103000D287DD2DFE818
:1049600000F03CB8C1DBE47CE37CE27C7C7C0700AB
:1049700007AB0AAA09A94846FFF7A7FB0746002F7D
:104980002AD1BDF81C000090CBA17B48DDE90923AA
:10499000FCF711FF0A9801F0DFFA064646B900F06D
:1049A000E7FA83465A46CDA17348FCF704FF0DE0B1
:1049B000D0A1304601F083FD0446606918B10020A3
:1049C000CE49086002E00120CC490860304600F082
:1049D00082FB0BA8FFF71AF836E2C94806A907AA16
:1049E0000AABCDE90021029008AA09A94846FFF7C1
:1049F0001CFD0746002F6BD1BDF81C000A99CDE9BC
:104A00000010BDF82030BFA15B48099AFCF7D3FE27
:104A10000A9801F0A1FA064646B900F0A9FA8346C1
:104A20005A46AEA15448FCF7C6FE4BE0C4A130463E
:104A300001F045FD0446C2A1206A02F01BFCD0B182
:104A4000C0A14D48226AFCF7B6FEC3A14A4862697C
:104A5000FCF7B1FEBAA1304600E0F2E101F02FFD13
:104A600004466069012803D10020A449086002E0DF
:104A70000120A2490860BDA1304601F020FD044696
:104A8000BAA1206A02F0F6FBE0B1AEA13A48226A70
:104A9000FCF791FEB0A138486269FCF78CFEB3A127
:104AA000304601F00CFD04466069012805D1B1498A
:104AB00008700020B049087004E00020AD4908707B
:104AC000AD490870304600F006FB0BA8FEF79EFFCC
:104AD000BAE14846FFF7A9FD18B9A8A12648FCF796
:104AE0006AFEB1E14846FFF7D3FDA0B9ABA1224869
:104AF000FCF761FE0BA90A20FFF7D9FD58B9ADA15B
:104B00001D48FCF758FE0C9A91B20B98FEF7D4FDA5
:104B10000BA8FEF77BFF97E1794801884846FFF72D
:104B2000EAFD18B952E17EE16FE165E163E1000061
:104B3000353631363833390074657374000000003F
:104B400037373234370000004F6E654E65745F446E
:104B500065764C696E6B0D0A50524F49443A2025D8
:104B6000732C09415549463A2025732C0944455672
:104B700049443A25730D0A000038014054697073A6
:104B80003A09C1ACBDD3B3C9B9A60D0A00000000F3
:104B90005741524E3A09C1ACBDD3CAA7B0DCA3BA43
:104BA000D0ADD2E9B4EDCEF30D0A00005741524E1C
:104BB0003A09C1ACBDD3CAA7B0DCA3BAB7C7B7A87E
:104BC000B5C4636C69656E7469640D0A0000000009
:104BD0005741524E3A09C1ACBDD3CAA7B0DCA3BA03
:104BE000B7FECEF1C6F7CAA7B0DC0D0A0000000080
:104BF0005741524E3A09C1ACBDD3CAA7B0DCA3BAE3
:104C0000D3C3BBA7C3FBBBF2C3DCC2EBB4EDCEF393
:104C10000D0A00005741524E3A09C1ACBDD3CAA794
:104C2000B0DCA3BAB7C7B7A8C1B4BDD328B1C8C850
:104C3000E7746F6B656EB7C7B7A8290D0A0000004F
:104C40004552523A09C1ACBDD3CAA7B0DCA3BACE13
:104C5000B4D6AAB4EDCEF30D0A0000005741524E6F
:104C60003A094D5154545F5061636B6574436F6EE4
:104C70006E656374204661696C65640D0A0000000E
:104C800053756273637269626520546F7069633A29
:104C90002025730D0A0000005075626C697368204E
:104CA000546F7069633A2025732C204D73673A2046
:104CB00025730D0A00000000636D6469643A2025C5
:104CC000732C207265713A2025732C207265715FF8
:104CD0006C656E3A2025640D0A0000004572726F03
:104CE00072206265666F72653A205B25735D0D0AFE
:104CF000000000004C45445F5357000090012142E2
:104D00005E000020746F7069633A2025732C207454
:104D10006F7069635F6C656E3A2025642C2070614A
:104D2000796C6F61643A2025732C207061796C6F07
:104D300061645F6C656E3A2025640D0A0000000016
:104D40004C4544006A736F6E5F6B65793A205B2552
:104D5000735D0D0A000000006A736F6E5F76616C10
:104D600075653A205B25645D0D0A0A0042757A7A02
:104D70006572000004000020050000205469707373
:104D80003A094D515454205075626C697368205330
:104D9000656E64204F4B0D0A00000000546970736B
:104DA0003A09526576205075626C69736852656382
:104DB0000D0A0000546970733A0953656E642050FF
:104DC00075626C69736852656C0D0A0037A13D48C5
:104DD000FCF7F1FC0BA90A20FFF79FFC58B93AA198
:104DE0003848FCF7E8FC0C9A91B20B98FEF764FC8B
:104DF0000BA8FEF70BFE27E04846FFF7B2FC18B9F8
:104E000038A13048FCF7D7FC1EE04846FFF764FAAB
:104E100020B93AA12B48FCF7CEFC03E03EA129487B
:104E2000FCF7C9FC10E04846FFF7F6FA20B941A1AB
:104E30002448FCF7C0FC03E045A12248FCF7BBFC7A
:104E400002E04FF0FF3700BF00BFFEF7F1FB781C18
:104E500010B90FB0BDE8F08F7D210A9802F01CFA5E
:104E60000546A5B1781C90B16D1C06E015F8012B24
:104E700050460AF1010A03A90A542878302802DBB7
:104E800028783928F2DD03A802F01EFC8246B8F12A
:104E90000F0F02D0B8F1030F05D1099803F0FCFA07
:104EA0000A9803F0F9FA00BFD3E700005469707361
:104EB0003A09526576205075626C69736852656C68
:104EC0000D0A000000380140546970733A095365B7
:104ED0006E64205075626C697368436F6D700D0A63
:104EE00000000000546970733A09526576205075CD
:104EF000626C697368436F6D700D0A00546970735A
:104F00003A094D5154542053756273637269626556
:104F1000204F4B0D0A000000546970733A094D513F
:104F200054542053756273637269626520457272CE
:104F30000D0A0000546970733A094D5154542055BC
:104F40006E537562736372696265204F4B0D0A0080
:104F5000546970733A094D51545420556E5375621B
:104F6000736372696265204572720D0A0000000069
:104F7000FA480068F949496808447047014609B988
:104F800000207047087B102801D10120F9E700209C
:104F9000F7E700B502461046FFF7F0FF08B900201A
:104FA00000BD1069FCE7014609B900207047087B85
:104FB000082801D10120F9E70020F7E700B50246F3
:104FC0001046FFF7F0FF10B90020E54900BDD2E917
:104FD0000601FBE708B5112007230122E1A100909B
:104FE000E34803F02BFAE24808BD70B504460D46CD
:104FF00004B10DB9012070BDAC4201D10020FAE727
:1050000005E0207808B90020F5E7641C6D1C2078C5
:1050100002F006F90646287802F002F98642F0D03E
:10502000207802F0FDF80646287802F0F9F8301AE8
:10503000E1E72DE9F04104460D460026002714B9AA
:105040000020BDE8F081204602F030F9461C3046D1
:105050002968884707460FB90020F2E73246214603
:10506000384602F0E3F83846EBE738B9C149C24A9E
:105070001160C2495160C24991607047BD49BE4A42
:105080001160016809B101681160BC49BA4A5160F8
:10509000416809B1416851600021B74A91601146E9
:1050A0000968B44A914207D1B3494968B34A914269
:1050B00002D1B349B04A916000BFDEE770B5044643
:1050C00028202168884705461DB12821284602F07E
:1050D000C6F8284670BD70B50446002522E0256854
:1050E000A08900F4807020B9A06810B1A068FFF713
:1050F000F2FFA08900F4807028B9206918B19E4A97
:10510000206951688847A08900F4007028B9206A96
:1051100018B1994A206A51688847974841682046E3
:1051200088472C46002CDAD170BD2E2070472DE91F
:10513000F04391B080460C4600BF00201090FFF76E
:10514000F4FF814600250CB1206818B9002011B089
:10515000BDE8F08300253CE0A16820680844405D7C
:10516000342820D00ADCA0F12B0009282ED2DFE859
:1051700000F0202D212A2D1617181900382816D0D6
:1051800006DC352810D036280FD037281ED10DE088
:1051900039280DD045280FD0652817D10BE000BF66
:1051A00000BF00BF00BF00BF00BF00BF00BF00BF07
:1051B00000BF00BF00BF00BFA16820680844405D79
:1051C0000DF8050003E00DF8059000E00AE000BFCF
:1051D0006D1C3F2D05D224B1A06828446168884227
:1051E000BAD300BF00200DF8050010A9684603F0EF
:1051F00089FE06460F4668461099884201D1002074
:10520000A5E7C8E906675F4A5F4B3046394602F0BA
:10521000D9FC04D86FF00040C8F8140011E0002257
:105220005A4B3046394602F0B5FC04D84FF00040E6
:10523000C8F8140005E03046394602F060FCC8F8B2
:1052400014000820C8F80C00A0686A461099891A52
:105250000844A06001207AE770B5064614461D4652
:10526000484A494B2046294602F0ACFC03D86FF06F
:10527000004070610FE00022444B2046294602F0B6
:1052800089FC03D84FF00040706104E020462946B5
:1052900002F035FC706120462946C6E9064570BD1E
:1052A00010B50446344841682046884710BD2DE9B2
:1052B000F04104460E4600253CB1207B00F0100072
:1052C00018B1A08900F4807010B10020BDE8F08111
:1052D000206908B90020F9E7304601F0E7FF0746EA
:1052E000206901F0E3FF874205D83146206902F0CA
:1052F00006F82069EAE720493046FFF79AFE05469E
:105300000DB90020E2E7206910B12069FFF7C8FF5E
:1053100025612846DAE72DE9F04104460D460026CE
:1053200000270CB1206810B90020BDE8F08160684A
:1053300028B1D4E90110884201D30020F5E7B5F186
:10534000004F01D30020F0E7A068401C05446068CE
:10535000A8421DD3A16820680844E6E76000002049
:105360000000F87F25692E25692E256900000000C0
:1053700080020020F584000868000020998400085D
:10538000998E00080000C0FFFFFFDF410000E0C170
:10539000206908B10020C8E7B5F1804F07D3B5F107
:1053A000004F02D26FF0004702E00020BDE76F001F
:1053B000206A60B13946226A206890470646DEB905
:1053C000E16920688847002060602060ADE73846CA
:1053D000A1698847064636B9E169206888470020F8
:1053E00060602060A1E7A068421C3046216801F09F
:1053F0001DFFE1692068884767602660A068304427
:1054000093E770B5044600250CB1206800B970BD63
:10541000A16820684518284601F048FFA1680844A3
:10542000A06000BFF3E72DE9FC5F04460D46164679
:105430001F4627F00043B24625F000405246CDE912
:1054400000402046019902F0BDFB03D225F0004147
:10545000204602E027F0004130468046894600227F
:10546000F84B4046494602F053FA82468B46324694
:105470003B462046294602F045FA21F000415246BB
:105480005B46CDE9000102F085FB02D80120BDE8B2
:10549000FC9F0020FBE72DE9F04F8BB081460F46C3
:1054A0004FF0000AD9E90645D04600261C2104A881
:1054B00001F0D5FEFFF739FE8346002002900390ED
:1054C00017B90BB0BDE8F08FCDE90045DDE900214B
:1054D0000AB1012200E0002241EA020020F000416E
:1054E000D94A511AC90F61B9CDE900455100019857
:1054F000B1EB400F03D1009808B9012000E0002073
:1055000028B1D2A104A802F099FF80462EE0D9F874
:10551000140002F0E3FA22462B46CDE9000102F026
:1055200039FB07D1CBA104A8D9F8142002F086FFDB
:1055300080461BE022462B46C7A104A802F07EFF4E
:10554000804602AAC6A104A801F0F2FE012806D1F5
:1055500022462B46DDE90201FFF765FF30B92246FE
:105560002B46C0A104A802F069FF8046B8F1000FE5
:1055700002DBB8F1190F01DD0020A2E708F10101FB
:105580003846FFF7C8FE8246BAF1000F01D100206D
:1055900097E700260DE004A8805D584503D12E2032
:1055A0000AF8060004E004A8805D0AF8060000BFBF
:1055B000761C4645EFD300200AF80600B868404440
:1055C000B86001207DE702460023002100BF23E0F0
:1055D000505C302806DB505C392803DC505C3038E6
:1055E000034415E0505C412806DB505C462803DC90
:1055F000505C373803440BE0505C612806DB505C9C
:10560000662803DC505C5738034401E000207047F3
:10561000032900D21B01491C0429D9D31846F6E7F7
:105620002DE9FF5F80468946154600240026C246C4
:1056300000200390834602900190A9EB0A000628FF
:1056400000DA81E00AF10200FFF7BDFF0646B6F579
:105650005C4F03D3B6F5604F00D275E0B6F5584FF6
:1056600029D3B6F55C4F26D20AF106070020009038
:105670000C200290A9EB0700062800DA64E03878D5
:105680005C2802D17878752800D05DE0B81CFFF75F
:105690009AFF00900098B0F55C4F03D30098B0F5E6
:1056A000604F00D350E0C6F30901009861F39F20DA
:1056B00000F5803402E0062002903446802C02D2AD
:1056C0000120039018E0B4F5006F04D2022003908B
:1056D000C020019010E0B4F5803F04D20320039075
:1056E000E020019008E0B4F5881F04D20420039064
:1056F000F020019000E027E00398401E00F0FF0B2F
:105700000BE004F0BF0040F08000296801F80B00B6
:10571000A409ABF1010000F0FF0BBBF1000FF0DCBE
:105720000398012804DD019820432968087003E0EC
:1057300004F07F00296808702968039808442860ED
:10574000029804B0BDE8F09F0020FAE72DE9F84F79
:1057500080460C46A16820680844461CA168206861
:105760000844451C002000900027A1682068405C88
:10577000222800D0BAE04FF0000AD1460DE0287888
:105780005C2809D1681C2168401A6168884200D3EE
:10579000ACE009F101096D1C6D1C2068281A6168D4
:1057A000884202D228782228E9D12068281A616824
:1057B000884202D22878222800D097E0A168206889
:1057C0000844281AA0EB090A0AF101002169884758
:1057D000074607B98AE0009775E030785C2807D063
:1057E00016F8010B009908700098401C00906AE0C0
:1057F0004FF00209A81B012800DA77E070786628CC
:1058000019D008DC222846D02F2846D05C2843D067
:10581000622854D108E06E2828D072282DD0742830
:1058200032D075284BD13FE00820009908700098CD
:10583000401C009044E00C20009908700098401C27
:1058400000903DE00000B03C0000F07F6E756C6C95
:10585000000000002564000025312E31356700006E
:10586000256C670025312E31376700000A2000992A
:1058700008700098401C009022E00D2000990870EC
:105880000098401C00901BE00920009908700098C7
:10589000401C009014E000BF00BF707800990870B1
:1058A0000098401C00900BE06A4629463046FFF7FE
:1058B000B7FE8146B9F1000F00D117E000E015E016
:1058C00000BF4E4400BFAE4287D30020009908704D
:1058D0001020C8F80C00C8F810702068281AA060C2
:1058E000A068401CA0600120BDE8F88F17B13846C1
:1058F0006169884716B12068301AA0600020F3E77C
:105900002DE9F04707468A46002400260025A046D8
:10591000A146BAF1000F02D10020BDE8F0876FB9AF
:1059200003215046FFF7F7FC06460EB90020F4E7C6
:10593000FCA1304601F0E3FC0120EEE73C4622E00A
:1059400020780C2811D006DC08280DD009280FD0AB
:105950000A2810D10AE00D2809D0222802D05C289C
:1059600009D100E000BF00BF00BF00BF00BF00BF03
:1059700009F1010905E02078202801DA09F105097B
:1059800000BF00BF641C20780028D9D1E01B00EBC9
:10599000090808F103015046FFF7BDFC06460EB9A1
:1059A0000020BAE7B9F1000F0FD122203070424633
:1059B0003946701C01F03AFC222108F101003154F3
:1059C0000021401C31540120A7E722203070751CB3
:1059D0003C463DE020781F2808DD2078222805D0AD
:1059E00020785C2802D0207828702FE05C2005F811
:1059F000010B20780C2815D006DC08280FD00928C8
:105A000019D00A281AD110E00D2811D0222803D06D
:105A10005C2813D1287018E02220287015E062203D
:105A2000287012E0662028700FE06E2028700CE0CD
:105A30007220287009E07420287006E02278BAA14C
:105A4000284602F0FBFC2D1D00BF00BF641C6D1C2E
:105A500020780028BED1222108F101003154002114
:105A6000401C3154012058E770B504460D462946C4
:105A70002069FFF745FF70BD014609B1086808B904
:105A80000020704719B1D1E90120904201D30846A6
:105A9000F7E702E08868401C886041B1D1E9012045
:105AA000904204D28A680868805C2028F2DDD1E93F
:105AB0000120904202D18868401E88600846E0E7D5
:105AC00010B504461CB1206808B1A06808B10020D8
:105AD00010BD7CB1A068001D616888420AD2A2682E
